:020000040800F2
:1000000000540020A9010008258C0008157700087D
:10001000018C000831030008D1C300080000000073
:1000200000000000000000000000000075A00008B3
:10003000F50E000800000000218D000877A00008E0
:10004000C3010008C3010008C3010008C301000880
:10005000C3010008C3010008190F0008C30100080C
:10006000C3010008230F0008C3010008C3010008F2
:10007000C3010008C3010008990E0008A90E00087A
:10008000C3010008B90E0008C30100080000000009
:10009000000000000000000000000000C301000894
:1000A000C3010008C3010008C3010008C301000820
:1000B000C301000825A20008C30100084977000811
:1000C00039770008C3010008C3010008C301000814
:1000D000C3010008C301000809A8000800000000CF
:1000E000C3010008C3010008C301000800000000AC
:1000F000000000000000000000000000C301000834
:1001000000000000C3010008C3010008C30100088B
:1001100000000000000000000000000000000000DF
:10012000C3010008C3010008C3010008C30100089F
:10013000C3010008000000000000000000000000F3
:10014000000000000000000000000000618C0008BA
:10015000C3010008C3010008C3010008C30100086F
:10016000C3010008C30100080000000000000000F7
:10017000000000000000000000000000000000007F
:1001800000000000C30100080000000000000000A3
:10019000C3010008DFF80CD000F06EF800480047FB
:1001A000F9C8000800540020064880470648004768
:1001B000FEE7FEE7FEE7FEE7FEE7FEE7FEE7FEE717
:1001C000FEE7FEE7C1A100089501000840EA01032F
:1001D0009B0703D009E008C9121F08C0042AFAD2FD
:1001E00003E011F8013B00F8013B521EF9D27047C1
:1001F000D2B201E000F8012B491EFBD27047002269
:10020000F6E710B513460A4604461946FFF7F0FF15
:10021000204610BD2DE9F05F0546002092469B4622
:1002200088460646814640241BE02846414647460C
:10023000224600F042F853465A46C01A914110D364
:1002400011461846224600F029F82D1A67EB0108DE
:100250004F4622460120002100F020F817EB00094C
:100260004E41201EA4F10104DFDC484631462A46F7
:100270004346BDE8F09F0000064C074D06E0E068ED
:1002800040F0010394E8070098471034AC42F6D3DD
:10029000FFF784FF20CB000840CB0008202A04DBB6
:1002A000203A00FA02F1002070479140C2F1200389
:1002B00020FA03F3194390407047202A04DB203AC8
:1002C00021FA02F00021704721FA02F3D040C2F176
:1002D0002002914008431946704770B58C1810F8F9
:1002E000015B15F0070301D110F8013B2A1106D17B
:1002F00010F8012B03E010F8016B01F8016B5B1E95
:10030000F9D12B0705D40023521E0DD401F8013B6F
:10031000FAE710F8013BCB1A921C03E013F8015BDB
:1003200001F8015B521EF9D5A142D8D3002070BD5F
:1003300002A00CF05FF800BFFEE700004552523A01
:100340004275734661756C745F48616E646C65726A
:100350000A00000070B505460C461646042D15D05F
:1003600007DC7DB1012D0ED0022D0DD0032D3ED125
:100370000BE0202D0BD0212D1ED0222D35D0232D8A
:1003800035D133E034E033E032E031E030E0207862
:10039000617840EA0120A17840EA0140E17840EA32
:1003A0000160154908602079087160794871A07969
:1003B000887100F0C7F81BE00F48007820700E48E5
:1003C0000088000A60700C480068000CA0700A48A1
:1003D0000068000EE07008480079207106484079F6
:1003E000607105488079A07102E001E000E000BF83
:1003F00000BF002070BD00000C00002010B50448B4
:1004000006F089FF08B100F0E7FD002010BD0000F4
:10041000E810002010B51448144908604FF4E1308A
:100420004860002111488160C160016181610C2137
:1004300041610021C16107F018F808B100F0CCFD5E
:1004400001220B49094807F08BF808B100F0C4FD00
:100450000022074907480AF0D4FA074905480AF07C
:10046000C9FA002010BD000000440040E810002040
:10047000E806002084030020A805002070B505468A
:100480000C461C492068096808441A49086020681D
:1004900040280FD108460068FF2806D816480A46AB
:1004A0001268811815480AF0A5FA14480AF07EFA75
:1004B000002070BD1248006840B91248006828B991
:1004C0000C4800680E4908600020F2E729780EA069
:1004D0000BF090FF00200749086007480A461268A1
:1004E000811806480AF086FA04480AF05FFA0020EC
:1004F000DFE7000014000020A8050020840300208E
:1005000034000020080000205553422072656365C6
:1005100069766520627573793A253032780A000071
:100520000146C87800068A7800EB02404A7800EB62
:1005300002200A7810447047014608784A7800EB98
:100540000220704710B5354806F0E5FE08B100F00E
:1005500043FD3348007910B1022809D103E000219E
:100560002E48C16008E04FF400512C48C16003E000
:1005700000212A48C16000BF00BF2948407920B14E
:10058000012806D002280ED108E00021234801618D
:100590000DE04FF4C0612148016108E04FF4806133
:1005A0001E48016103E000211C48016100BF00BF3B
:1005B0001B488079072802D0082810D103E00021C9
:1005C000164881600FE01548006918B900211348EA
:1005D000816003E04FF480511048816003E0002106
:1005E0000E48816000BF00BF0D4800680B4948609D
:1005F00000210A4881610C2141610021C16106F09E
:1006000034FF08B100F0E8FC0648074A1268811878
:100610000122024806F0A4FF10BD0000E8100020EF
:100620000C000020E80600201C00002070B54C489B
:100630000068401CB8B94B4800684B4909688842BB
:1006400010D16FF00100464908600020474908605A
:1006500047480A461268811846480AF0CBF94548CF
:100660000AF0A4F970BD3E480068002809DB424842
:1006700006F08DFB012804D1404804F089FD0128D3
:1006800000D0EFE73848008836490988401AC0F39F
:100690000A05B5F5806F00DDE4E73148007800F029
:1006A000F00028B908F0FAFB642000F0C7FA54E023
:1006B0002B48007800F0F000102802D107F0EAFB88
:1006C0004BE027480078F02836D125480068001212
:1006D000C8B92B480068FC21B0FBF1F201FB120500
:1006E00027480068B0FBF1F01D490968A0EB212400
:1006F000C4EB8411234A02EB8100294600F046F83E
:1007000000F062F829E0FC251D480068FC21B0FBE0
:10071000F1F013490968A0EB2124C4EB8411194AB4
:1007200002EB8100294600F031F80D480068A0F581
:1007300080700B49086010E009480078FE280CD151
:10074000FC21114808F074F9054625B129460E48E8
:1007500000F01CF801E000F037F800BF82E700006D
:1007600030000020200000201C0000201400002089
:10077000A80500208403002000020020F8020020C9
:1007800024000020DC150020E80F002070B5024690
:10079000002011E0145C0A4B1D681B685B1C084EAE
:1007A0003360084B5C5533461B68B3F5006F02D1CC
:1007B000002334462360401C8842EBD370BD000008
:1007C0001C000020E806002010B5012009F080F987
:1007D0004FF0FF300149086010BD000030000020DC
:1007E0002DE9F041E44EE54C3046006818B1E4488C
:1007F0000068801C10B10020BDE8F081207800F076
:10080000F00050B9012007F0DBFF3146204608F028
:10081000CBFD642000F012FAA8E1207800F0F0008F
:10082000102807D1022007F0CBFF3146204607F001
:1008300083FC9BE1207800F0F000202804D13146B1
:10084000204609F041FB91E1207800F0F0003028CB
:1008500004D13146204609F067FD87E120788028E1
:1008600003D1204608F02AFF80E12078812839D181
:10087000002000F0CFFC05462620C2490870052064
:100880004870172088702020C8700020087105F07B
:10089000C1FF4FF47A71B0FBF1F0B0FBF1F0B94950
:1008A000487100208871C87105F4807018B9084635
:1008B0000079401C087105F4806020B9B1480079C6
:1008C000801CB049087105F4004020B9AD4800799A
:1008D000001DAC4908710821AA48FFF757FFFFF730
:1008E00073FF43E12078822803D1204608F0E6FE1A
:1008F0003CE12078832813D1A348006985B2A1493F
:100900000D70280A4870A148006885B28D70280AC9
:10091000C87004219B48FFF739FFFFF755FF25E119
:10092000207884280ED121790906E27801EB024172
:10093000A27801EB02216278881800F0BDFCFFF775
:1009400043FF13E12078852803D1204607F0AEFE4F
:100950000CE12078862812D16078012802D100F0BD
:1009600065FD09E0607818B9002000F05FFD03E044
:100970004FF0FF3000F05AFDFFF726FFF6E0207839
:10098000872805D1204600F02BFBFFF71DFFEDE087
:10099000207888280DD12379677903EB0722A37883
:1009A000E77803EB0721607800F00EFDFFF70CFFFE
:1009B000DCE0207889280AD16078724900F0E2FCF6
:1009C00004217048FFF7E2FEFFF7FEFECEE020783C
:1009D0008A281AD1607820B94FF4807000F0ACFBFF
:1009E00010E04FF4007000F0A7FB054665490D705C
:1009F000280A4870280C8870280EC87004216148A5
:100A0000FFF7C4FEFFF7E0FEB0E020788B2803D1AB
:100A1000204607F04BFEA9E02078E02805D12046CB
:100A200000F080F9FFF7D0FEA0E02078F0282BD16D
:100A300020785349086020790006E17800EB0140F6
:100A4000A17800EB01206178451851490968514AA5
:100A500012685143C81CC11700EB917189108900BD
:100A60004D4A116010460068A84201D21046056048
:100A700049480068FC21B0FBF1F04149096801EBED
:100A800000203F49086071E02078F12804D100F08F
:100A9000A4FAFFF799FE69E02078FC282AD1FFF735
:100AA00093FE60785A2861D1A0785A285ED1E07808
:100AB0005A285BD120795A2858D16079A52855D178
:100AC000A079A52852D1E079A5284FD1207AA52870
:100AD0004CD100BFBFF34F8F3048006800F4E06096
:100AE0002F490843001D2D490860BFF34F8F00BFF9
:100AF00000BFFEE72078FD2806D12A4800682A4971
:100B00000860FFF761FE31E02078FE2815D160789B
:100B100078B9A07868B907F079FF054619490D70D2
:100B2000280A487002211748FFF730FEFFF74CFEF5
:100B30001CE020781249086018E02078FF280FD1C7
:100B4000F02010490870F1204870F2208870F320DE
:100B5000C87004210B48FFF719FEFFF735FE05E0CA
:100B6000FFF732FE217811A00BF044FC002002496F
:100B7000086000BF40E6000034000020A805002007
:100B800030000020E80F0020000002401004024066
:100B9000C0CA0008C4CA0008240000200CED00E010
:100BA0000000FA051C0000202000002043444320E0
:100BB000434F4D20457272282530327829210A0092
:100BC00070B51A4800681A49096888422CD017483D
:100BD000006817490968884204D914480068C0F5BC
:100BE000006404E01248006810490968441A402C67
:100BF00000D940240D480568A2B20E4841190E489C
:100C000009F0FFFE0C4809F04FFF68B9074800687B
:100C100020440649086008460068B0F5006F01D11D
:100C200000200860012070BD0020FCE720000020AB
:100C30001C000020E80600208403002070B5044654
:100C400034B12848046004F057F92749086070BDA2
:100C500026480068801C48B925480068254909686D
:100C6000884203D100201F490860F0E71D48006852
:100C700000B9ECE71B480068002816DD04F03CF9D9
:100C800019490968401A1749096888420DD94FF077
:100C9000FF3014490860801E144908601548006838
:100CA0001349086014A00BF0A5FB1748D0F81852A0
:100CB00005B9CCE70B480068401C88B9D5F8140288
:100CC00070B9124806F063F8012809D1104804F001
:100CD0005FFA012804D1FFF777FD0EA00BF08AFB25
:100CE00000BFB4E7480000204C0000203000002086
:100CF000200000201C000020436F6D6D57444720EA
:100D0000576169740A00000084030020000200207B
:100D1000F8020020436F6D6D57444720526573659C
:100D2000740A000070B504462078E02800D070BD39
:100D30006078FF2801D100F023F86078012817D1EE
:100D400060790006217900EB0140E17800EB012099
:100D5000A1784518607A0006217A00EB0140E1791C
:100D600000EB0120A17946183146284600F042F8F0
:100D7000607810B9A07800F017F800BFD7E700003E
:100D80000021074A1160002005E04FF0FF31054ABD
:100D900042F82010401CB0F5806FF6DB7047000071
:100DA000A0000020DC16002070B50546284600F0A3
:100DB00055F80446002C00DA70BD0FE00B4850F8DF
:100DC0002400401C00B90DE0084B621C53F82210AF
:100DD0001A4652F8240008F0F3FFA41C04480068E7
:100DE0008442EBD300BF00BFE6E70000DC16002022
:100DF000A000002010B5174A1268B2F5FF7F00D995
:100E000010BD144A126812B9421C02B9F8E7114A1F
:100E10001268012A0AD9421C42B90E4A1268521EAF
:100E20000D4B53F82220521C02B9E9E7094A136816
:100E30001268521C074C2260074A42F823002246DF
:100E400013681268521C2260034A42F8231000BF44
:100E5000D6E70000A0000020DC1600200246002398
:100E60000AB90020704700210AE0094850F8210023
:100E7000401C20B95B1C934201D1881CF2E7891CFD
:100E8000044800688142F0D34FF0FF30EAE70000E9
:100E9000DC160020A000002010B5024801F0E4FAA2
:100EA00010BD00005802002010B5024801F0DCFA25
:100EB00010BD0000A802002010B50249086B01F027
:100EC000D3FA10BDE810002030B50468246824F47B
:100ED000802405682C60046863608468402C04D119
:100EE0000468A2600468E16003E00468A16004682B
:100EF000E26030BD70470CB50021009100EB80002E
:100F0000019105E00099491C00910199491C01914A
:100F100001998142F6DB0CBD10B5012003F0F0FE13
:100F200010BD10B500F0A6F9082003F0E9FE10BDD1
:100F300000B587B000BF1048006840F001000E49BE
:100F400008600846006800F00100019000BF00BF83
:100F50000A480390022004900120029002A9084848
:100F600003F0DCFE00220221062004F0C0FC062073
:100F700004F0B0FC07B000BD303802400000111092
:100F80000000024000B587B000BF1048006840F084
:100F900001000E4908600846006800F00100019059
:100FA00000BF00BF0A48039002200490082002906E
:100FB00002A9084803F0B2FE00220221092004F031
:100FC00096FC092004F086FC07B000BD30380240D2
:100FD0000000311000000240704770477047000069
:100FE00030B585B004462078872801D005B030BDE3
:100FF000607808B9174D0FE06078012801D1164DCF
:101000000AE06078022801D1144D05E060780328D9
:1010100001D1134D00E0E9E7A078E17800EB012071
:1010200000902079019060790290A0790390E07996
:1010300004900848854203D1009820F4D0500090D5
:10104000009800B9D2E76946284603F067FE00BF62
:10105000CCE700000000024000040240000802400B
:10106000000C02402DE9F04186B006460C4600BF58
:101070003048006840F001002E49086008460068CA
:1010800000F00100009000BF00BF00BF08460068EC
:1010900040F0020008600846006800F0020000907E
:1010A00000BF00BF00BF0846006840F004000860B1
:1010B0000846006800F00400009000BF00BF002058
:1010C00002900120039000200490019401A9304671
:1010D00003F024FE002500E06D1C642DFCDB30696C
:1010E000204008B1012000E00020074600200290C7
:1010F0000220039000200490019401A9304603F0DF
:101100000DFE002500E06D1C642DFCDB30692040E5
:1011100008B1012000E000208046474503D00120AF
:1011200006B0BDE8F081012F01D10220F8E70020D0
:10113000F6E700003038024010B5044604F0010024
:1011400090B12C48006800F0010010B92AA00BF003
:1011500051F92848006820F0040026490860084634
:10116000006840F00100086004F0020028B1214846
:10117000006820F005001F49086004F0040068B111
:101180001C48006800F0010030B11A48006800F007
:10119000040008B1012010BD0020FCE704F00800A5
:1011A00028B11448006820F004001249086004F4D3
:1011B000807040B103F0A0FE80F000401449086048
:1011C00008460068486004F4007080B11048006868
:1011D0000F494968401A42F21071884205D20C4802
:1011E00000680B494968401AD5E70020D3E7014859
:1011F0000068D0E7A80000205450204952512049EF
:101200006E746572727570742061626C652E0A006E
:10121000AC00002010B586B00446002C18DA00207F
:101220000290012003900220049048F202500190A5
:1012300001A90F4803F072FD0020029003900220E4
:1012400004901820019001A9094803F067FD00BF30
:10125000002C08DD06480069204010B1012006B0CE
:1012600010BD0020FBE70248006980B2F7E70000EC
:101270000000024010B50D48006900F0080078B188
:1012800003F03AFE0A4948600A48006800F001008D
:1012900050B10848006840F004000649086003E0C7
:1012A00003F02AFE0249086010BD00000000024061
:1012B000AC000020A800002010B586B00446002C29
:1012C00027DAE02001900120029000200390022004
:1012D000049001A9294803F021FD0022202127487C
:1012E00003F004FE01224021244803F0FFFD012207
:1012F0008021224803F0FAFD06200190012002908F
:10130000002003900220049001A91D4803F006FD6F
:1013100031E0022000EA244028B1C4F34002022157
:10132000174803F0E3FD042000EA244028B1C4F389
:1013300080020421124803F0D9FD202000EA244055
:1013400028B1C4F3401220210C4803F0CFFD402007
:1013500000EA244028B1C4F380124021074803F07A
:10136000C5FD802000EA244028B1C4F3C0128021CA
:10137000024803F0BBFD06B010BD000000000240B3
:101380000004024030B587B005460C4618220D49CE
:1013900001A8FEF71BFF0020A070E070062D03D30C
:1013A0002070607007B030BD01A850F825000069BA
:1013B000207001A850F825000069000A607000BF85
:1013C000F0E70000E0CA0008F0B587B005460E4619
:1013D00017461822144901A8FEF7F8FE062D01D37E
:1013E00007B0F0BD00241BE00120A0403040B0B1A8
:1013F0000120A040384048B10122A24091B201AA88
:1014000052F82500012203F071FD08E00122A240FC
:1014100091B201AA52F82500002203F067FD641C76
:101420000F2CE1DD00BFDBE7C8CA000810B586B0AD
:101430000446002C0BDA0020029003900220049056
:101440001020019001A9154803F068FC23E08CB935
:1014500001200290002003900220049010200190AF
:1014600001A90E4803F05AFC012210210B4803F099
:101470003DFD10E001200290002003900220049026
:101480001020019001A9054803F048FC002210211A
:10149000024803F02BFD06B010BD0000000402401E
:1014A0000CB500BF08480068009008480068406A12
:1014B00001900549009809688842F3D1DDE90010E0
:1014C00000EB01400CBD0000E8000020C439002002
:1014D00070B50A480468001D0568001D066834449C
:1014E00054B108220649204607F04AF9042204496B
:1014F0001031284607F044F970BD0000107AFF1F34
:1015000086000020014609B90120704791F8350096
:10151000022801D10120F8E70868006820F00100E6
:101520000A68106000200A6810600A6850600A6843
:1015300090600A68D0600A68106121200A685061D2
:10154000F94A086890425CD9F84A0868904201D18B
:10155000F74852E0F44A483A0868904201D1F4480A
:101560004BE0F24A60320868904201D1F04844E012
:10157000ED4A18320868904201D1ED483DE0EB4A4F
:1015800018320868904201D1801536E0E64A303AB8
:101590000868904201D180152FE0E44A783208684B
:1015A000904201D1801528E0DF4A3032086890422D
:1015B00001D1801521E0DD4A30320868904202D125
:1015C0004FF4802019E0D84A183A0868904202D1B6
:1015D0004FF4802011E0D54A90320868904202D141
:1015E0004FF4802009E0D04A48320868904202D186
:1015F0004FF4802001E04FF08070CB4A4C3A1060ED
:101600001FE1CA4AA832086890425CD9C74A0868F4
:10161000904201D1C64852E0C34A483A0868904215
:1016200001D1C3484BE0C14A60320868904201D101
:10163000BF4844E0BC4A18320868904201D1BC4817
:101640003DE0BA4A18320868904201D1801536E070
:10165000B54A303A0868904201D180152FE0B34A6C
:1016600078320868904201D1801528E0AE4A3032C5
:101670000868904201D1801521E0AC4A30320868F8
:10168000904202D14FF4802019E0A74A183A086826
:10169000904202D14FF4802011E0A44A90320868B1
:1016A000904202D14FF4802009E09F4A48320868F6
:1016B000904202D14FF4802001E04FF080709A4AAE
:1016C000503A1060BDE0994A4832086890425CD9AF
:1016D000964A0868904201D1954852E0924A483AA9
:1016E0000868904201D192484BE0904A6032086805
:1016F000904201D18E4844E08B4A183208689042EB
:1017000001D18B483DE0894A18320868904201D1E6
:10171000801536E0844A303A0868904201D180153D
:101720002FE0824A78320868904201D1801528E083
:101730007D4A30320868904201D1801521E07B4A11
:1017400030320868904202D14FF4802019E0764A86
:10175000183A0868904202D14FF4802011E0734A91
:1017600090320868904202D14FF4802009E06E4A1E
:1017700048320868904202D14FF4802001E04FF0D7
:1017800080706A4A103AD0605BE0684A086890420C
:1017900001D1674852E0644A483A0868904201D152
:1017A00063484BE0614A60320868904201D160486A
:1017B00044E05D4A18320868904201D15C483DE03F
:1017C0005A4A18320868904201D1801536E0564ACC
:1017D000303A0868904201D180152FE0534A7832A0
:1017E0000868904201D1801528E04F4A30320868DD
:1017F000904201D1801521E04C4A30320868904275
:1018000002D14FF4802019E0474A183A0868904204
:1018100002D14FF4802011E0444A9032086890428F
:1018200002D14FF4802009E03F4A483208689042D4
:1018300002D14FF4802001E04FF080703B4A103A13
:101840009060394A086890425CD9384A08689042EA
:1018500001D1202052E0344A483A0868904201D130
:1018600020204BE0314A60320868904201D12020AC
:1018700044E02D4A18320868904201D120203DE012
:101880002A4A18320868904201D1C01436E0264A2C
:10189000303A0868904201D1C0142FE0234A7832D0
:1018A0000868904201D1C01428E01F4A303208680D
:1018B000904201D1C01421E01C4A303208689042A5
:1018C00002D14FF4001019E0174A183A0868904204
:1018D00002D14FF4001011E0144A9032086890428F
:1018E00002D14FF4001009E00F4A483208689042D4
:1018F00002D14FF4001001E04FF000600A4A4C3A68
:10190000106021E1094AA8320868904260D9074A6C
:101910000868904201D1202056E0034A483A0868FE
:10192000904207D120204FE05864024010600240EE
:1019300004008000F84A0868904201D1202043E06A
:10194000F64A0868904201D120203DE0F24A483A28
:101950000868904201D1C01436E0F04A483A08685D
:10196000904201D1C0142FE0EB4A1832086890422F
:1019700001D1C01428E0E94A18320868904201D128
:10198000C01421E0E44A303A0868904202D14FF492
:10199000001019E0E14A303A0868904202D14FF451
:1019A000001011E0DC4A30320868904202D14FF456
:1019B000001009E0D94A30320868904202D14FF451
:1019C000001001E04FF00060D44A683A1060BBE0BC
:1019D000D14A183A086890425BD9CF4A603A086801
:1019E000904201D1202050E0CC4A603A08689042F1
:1019F00001D1202049E0C84A0868904201D1202046
:101A000043E0C64A0868904201D120203DE0C24A26
:101A1000483A0868904201D1C01436E0BF4A483ABB
:101A20000868904201D1C0142FE0BB4A1832086800
:101A3000904201D1C01428E0B84A18320868904298
:101A400001D1C01421E0B44A303A0868904202D172
:101A50004FF4001019E0B14A303A0868904202D1C0
:101A60004FF4001011E0AC4A30320868904202D1C5
:101A70004FF4001009E0A94A30320868904202D1C0
:101A80004FF4001001E04FF00060A34A703AD060BC
:101A90005AE0A14A603A0868904201D1202050E003
:101AA0009E4A603A0868904201D1202049E09A4A53
:101AB0000868904201D1202043E0984A086890428B
:101AC00001D120203DE0944A483A0868904201D173
:101AD000C01436E0914A483A0868904201D1C014D7
:101AE0002FE08D4A18320868904201D1C01428E0D6
:101AF0008A4A18320868904201D1C01421E0864A0F
:101B0000303A0868904202D14FF4001019E0834A3D
:101B1000303A0868904202D14FF4001011E07E4A3A
:101B200030320868904202D14FF4001009E07B4A3D
:101B300030320868904202D14FF4001001E04FF0BB
:101B40000060754A703A9060744A183A086890428A
:101B50005BD9714A603A0868904201D1082050E090
:101B60006E4A603A0868904201D1082049E06A4A0A
:101B70000868904201D1082043E0684A0868904212
:101B800001D108203DE0644A483A0868904201D1FA
:101B9000401536E0614A483A0868904201D1401544
:101BA0002FE05D4A18320868904201D1401528E0C4
:101BB0005A4A18320868904201D1401521E0564A2D
:101BC000303A0868904202D14FF4002019E0534A9D
:101BD000303A0868904202D14FF4002011E04E4A9A
:101BE00030320868904202D14FF4002009E04B4A9D
:101BF00030320868904202D14FF4002001E04FF0EB
:101C00000070464A643A10601EE1434A4832086850
:101C100090425BD9404A603A0868904201D108205E
:101C200050E03E4A603A0868904201D1082049E0FD
:101C3000394A0868904201D1082043E0374A0868D1
:101C4000904201D108203DE0334A483A086890426A
:101C500001D1401536E0314A483A0868904201D136
:101C600040152FE02C4A18320868904201D14015E7
:101C700028E02A4A18320868904201D1401521E034
:101C8000254A303A0868904202D14FF4002019E00A
:101C9000224A303A0868904202D14FF4002011E005
:101CA0001D4A30320868904202D14FF4002009E00A
:101CB0001A4A30320868904202D14FF4002001E005
:101CC0004FF00070154A683A1060BDE0124A183AA9
:101CD000086890425DD9104A603A0868904201D184
:101CE000082052E00D4A603A0868904201D108206D
:101CF0004BE0094A0868904201D1082045E0074AB4
:101D00000868904201D108203FE0034A483A086839
:101D1000904205D1401538E0706002407064024086
:101D2000FA4A0868904201D140152EE0F84A086846
:101D3000904201D1401528E0F44A60320868904290
:101D400001D1401521E0F24A483A0868904202D198
:101D50004FF4002019E0ED4A18320868904202D191
:101D60004FF4002011E0EA4A18320868904202D18C
:101D70004FF4002009E0E54A78320868904202D129
:101D80004FF4002001E04FF00070E14A883AD06043
:101D90005AE0DF4A783A0868904201D1082050E0C2
:101DA000DA4A183A0868904201D1082049E0D84A36
:101DB000183A0868904201D1082042E0D34A4832DC
:101DC0000868904201D108203BE0D14A603A086897
:101DD000904201D1401534E0CC4A0868904201D1CC
:101DE00040152EE0CA4A0868904201D1401528E00B
:101DF000C64A60320868904201D1401521E0C44AC9
:101E0000483A0868904202D14FF4002019E0BF4AD6
:101E100018320868904202D14FF4002011E0BC4A09
:101E200018320868904202D14FF4002009E0B74A06
:101E300078320868904202D14FF4002001E04FF060
:101E40000070B34A883A9060B04A303208689042D5
:101E50005BD9AF4A783A0868904201D1AD4850E06A
:101E6000AA4A183A0868904201D1AA4849E0A84A0B
:101E7000183A0868904201D1A64842E0A34A483285
:101E80000868904201D1A3483BE0A14A603A086843
:101E9000904201D1402034E09C4A0868904201D130
:101EA00040202EE09A4A0868904201D1402028E064
:101EB000964A60320868904201D1402021E0944A5D
:101EC000483A0868904202D14FF4803019E08F4AB6
:101ED00018320868904202D14FF4803011E08C4AE9
:101EE00018320868904202D14FF4803009E0874AE6
:101EF00078320868904202D14FF4803001E04FF40C
:101F00008000824A1C3A106021E1814A3032086820
:101F100090425BD97E4A783A0868904201D17D4868
:101F200050E07A4A183A0868904201D1794849E06D
:101F3000774A183A0868904201D1764842E0734ADD
:101F400048320868904201D172483BE0704A603ADA
:101F50000868904201D1402034E06C4A0868904201
:101F600001D140202EE06A4A0868904201D1402009
:101F700028E0664A60320868904201D1402021E0A2
:101F8000634A483A0868904202D14FF4803019E021
:101F90005E4A18320868904202D14FF4803011E056
:101FA0005B4A18320868904202D14FF4803009E051
:101FB000564A78320868904202D14FF4803001E0EE
:101FC0004FF48000514A203A1060C0E0504A303A45
:101FD000086890425BD94E4A783A0868904201D12D
:101FE0004C4850E0494A183A0868904201D14948A3
:101FF00049E0474A183A0868904201D1454842E012
:10200000424A48320868904201D142483BE0404A87
:10201000603A0868904201D1402034E03B4A0868A9
:10202000904201D140202EE0394A0868904201D107
:10203000402028E0354A60320868904201D14020B3
:1020400021E0334A483A0868904202D14FF4803088
:1020500019E02E4A18320868904202D14FF48030BD
:1020600011E02B4A18320868904202D14FF48030B8
:1020700009E0264A78320868904202D14FF4803055
:1020800001E04FF48000224A883AD0605FE0204AA5
:10209000783A0868904201D11E4855E01B4A183A28
:1020A0000868904201D11B484EE0194A183A086866
:1020B000904201D1174847E0144A483208689042DC
:1020C00001D1144840E0124A603A0868904201D1B8
:1020D000402039E00D4A0868904201D1402033E0A9
:1020E0000B4A0868904201D140202DE0074A603237
:1020F0000868904201D1402026E0054A483A086825
:10210000904209D14FF480301EE000002864024064
:102110008860024001008000D14A0868904202D1E4
:102120004FF4803010E0CF4A0868904202D14FF45B
:10213000803009E0CA4A60320868904202D14FF408
:10214000803001E04FF48000C64AA03A9060C44A53
:102150001832086890425BD9C24A903A08689042A7
:1021600001D1102050E0BE4A303A0868904201D1B7
:10217000102049E0BB4A303A0868904201D1102053
:1021800042E0B74A30320868904201D110203BE06B
:10219000B44A783A0868904201D1001534E0B04A58
:1021A000183A0868904201D100152DE0AD4A183A5E
:1021B0000868904201D1001526E0A94A4832086813
:1021C000904201D100151FE0A64A603A086890428B
:1021D00002D14FF4801017E0A14A0868904202D162
:1021E0004FF4801010E09F4A0868904202D14FF4EB
:1021F000801009E09A4A60320868904202D14FF498
:10220000801001E04FF08060954A343A10601CE184
:10221000944A1832086890425BD9924A903A08680A
:10222000904201D1102050E08D4A303A0868904227
:1022300001D1102049E08B4A303A0868904201D120
:10224000102042E0864A30320868904201D11020C6
:102250003BE0844A783A0868904201D1001534E0A6
:102260007F4A183A0868904201D100152DE07D4A56
:10227000183A0868904201D1001526E0784A4832A1
:102280000868904201D100151FE0764A603A08685C
:10229000904202D14FF4801017E0714A08689042D2
:1022A00002D14FF4801010E06E4A0868904202D1CB
:1022B0004FF4801009E06A4A60320868904202D107
:1022C0004FF4801001E04FF08060654A383A1060AA
:1022D000BBE0644A483A086890425BD9614A903A48
:1022E0000868904201D1102050E05D4A303A0868F9
:1022F000904201D1102049E05A4A303A0868904291
:1023000001D1102042E0564A30320868904201D193
:1023100010203BE0534A783A0868904201D10015FA
:1023200034E04F4A183A0868904201D100152DE078
:102330004C4A183A0868904201D1001526E0484AF4
:1023400048320868904201D100151FE0454A603AC2
:102350000868904202D14FF4801017E0404A0868A4
:10236000904202D14FF4801010E03E4A086890423B
:1023700002D14FF4801009E0394A60320868904277
:1023800002D14FF4801001E04FF08060354AA03A4E
:10239000D0605AE0334A903A0868904201D1102048
:1023A00050E02F4A303A0868904201D1102049E0AD
:1023B0002C4A303A0868904201D1102042E0284A65
:1023C00030320868904201D110203BE0254A783A2B
:1023D0000868904201D1001534E0214A183A086893
:1023E000904201D100152DE01E4A183A086890422B
:1023F00001D1001526E01A4A48320868904201D1FE
:1024000000151FE0174A603A0868904202D14FF465
:10241000801017E0124A0868904202D14FF48010F1
:1024200010E0104A0868904202D14FF4801009E091
:102430000B4A60320868904202D14FF4801001E0EC
:102440004FF08060074AA03A90600020C86481F88D
:10245000350000BF81F8340000BF00BFFFF755B85A
:1024600040640240A060024010B50446F94920686B
:1024700088425DD9F74854380068F74A216891428C
:1024800001D1082152E0F34A483A2168914201D132
:1024900008214BE0F04A60322168914201D10821C5
:1024A00044E0EC4A18322168914201D108213DE014
:1024B000E94A18322168914201D1491536E0E54ACE
:1024C000303A2168914201D149152FE0E24A783231
:1024D0002168914201D1491528E0DE4A3032216855
:1024E000914201D1491521E0DB4A30322168914205
:1024F00002D14FF4002119E0D64A183A21689142DE
:1025000002D14FF4002111E0D34A90322168914268
:1025100002D14FF4002109E0CE4A483221689142AD
:1025200002D14FF4002101E04FF00071084022E198
:10253000C949A831206888425DD9C6485838006822
:10254000C54A2168914201D1082152E0C14A483A66
:102550002168914201D108214BE0BF4A60322168D5
:10256000914201D1082144E0BA4A183221689142CF
:1025700001D108213DE0B84A18322168914201D1C9
:10258000491536E0B34A303A2168914201D14915E4
:102590002FE0B14A78322168914201D1491528E0F3
:1025A000AC4A30322168914201D1491521E0AA4A52
:1025B00030322168914202D14FF4002119E0A54A3E
:1025C000183A2168914202D14FF4002111E0A24A49
:1025D00090322168914202D14FF4002109E09D4AD6
:1025E00048322168914202D14FF4002101E04FF0BE
:1025F00000710840BFE098494831206888425DD9A1
:10260000954810384068944A2168914201D10821C8
:1026100052E0904A483A2168914201D108214BE0AA
:102620008D4A60322168914201D1082144E0894AF3
:1026300018322168914201D108213DE0864A1832C2
:102640002168914201D1491536E0824A303A216829
:10265000914201D149152FE07F4A78322168914299
:1026600001D1491528E07B4A30322168914201D1DD
:10267000491521E0784A30322168914202D14FF465
:10268000002119E0734A183A2168914202D14FF4AF
:10269000002111E0704A90322168914202D14FF43A
:1026A000002109E06B4A48322168914202D14FF47F
:1026B000002101E04FF0007108405CE066481038EE
:1026C0000068654A2168914201D1082152E0614ABF
:1026D000483A2168914201D108214BE05E4A6032BC
:1026E0002168914201D1082144E05A4A18322168F8
:1026F000914201D108213DE0574A183221689142A8
:1027000001D1491536E0534A303A2168914201D14E
:1027100049152FE0504A78322168914201D149157C
:1027200028E04C4A30322168914201D1491521E01C
:10273000494A30322168914202D14FF4002119E018
:10274000444A183A2168914202D14FF4002111E025
:10275000414A90322168914202D14FF4002109E0B0
:102760003C4A48322168914202D14FF4002101E0F5
:102770004FF000710840002870D02068006800F019
:1027800004000028F8D02068006820F004002168C8
:10279000086030492068884261D92F492068884202
:1027A00001D1082052E02B4948392068884201D1E4
:1027B00008204BE0284960312068884201D1082078
:1027C00044E0244918312068884201D108203DE0C6
:1027D000214918312068884201D1401536E01D4951
:1027E00030392068884201D140152FE01A497831EC
:1027F0002068884201D1401528E016493031206810
:10280000884201D1401521E01349303120688842C7
:1028100002D14FF4002019E00E491839206888428F
:1028200002D14FF4002011E00B499031206888421A
:1028300002D14FF4002009E006494831206888425F
:1028400002D14FF4002001E04FF0007001494C39F3
:10285000086023E158640240106002402FE1F8490B
:10286000206888425CD9F649A8392068884201D19D
:10287000082051E0F3492068884201D108204BE04C
:10288000EF4948392068884201D1082044E0ED49E9
:1028900060312068884201D108203DE0E849903944
:1028A0002068884201D1401536E0E6491831206899
:1028B000884201D140152FE0E14930392068884233
:1028C00001D1401528E0DF4978312068884201D1E4
:1028D000401521E0DA4978392068884202D14FF466
:1028E000002019E0D74930312068884202D14FF4E6
:1028F000002011E0D24918392068884202D14FF4F3
:10290000002009E0CF4990312068884202D14FF47D
:10291000002001E04FF00070CA4908390860BDE0AE
:10292000C7496039206888425CD9C549A839206800
:10293000884201D1082051E0C2492068884201D173
:1029400008204BE0BE4948392068884201D1082060
:1029500044E0BC4960312068884201D108203DE054
:10296000B74990392068884201D1401536E0B54911
:1029700018312068884201D140152FE0B049303924
:102980002068884201D1401528E0AE49783120689E
:10299000884201D1401521E0A94978392068884250
:1029A00002D14FF4002019E0A64930312068884256
:1029B00002D14FF4002011E0A14918392068884263
:1029C00002D14FF4002009E09E49903120688842EE
:1029D00002D14FF4002001E04FF000709849B8395F
:1029E000C8605BE09649A8392068884201D1082078
:1029F00051E094492068884201D108204BE0904979
:102A000048392068884201D1082044E08D4960316E
:102A10002068884201D108203DE08949903920682A
:102A2000884201D1401536E0864918312068884235
:102A300001D140152FE0824930392068884201D108
:102A4000401528E07F4978312068884201D140153F
:102A500021E07B4978392068884202D14FF4002078
:102A600019E0784930312068884202D14FF40020C3
:102A700011E0734918392068884202D14FF40020D0
:102A800009E0704990312068884202D14FF400205B
:102A900001E04FF000706A49B8398860E06C40F09E
:102AA0000100E064042084F8350000BF002084F8B1
:102AB000340000BFA06C10B12046A16C884761496A
:102AC0004831206888425DD95E480C3800685C4A0D
:102AD000A83A2168914201D15B4951E0594A2168E5
:102AE000914201D158494BE0554A483A21689142F8
:102AF00001D1554944E0534A60322168914201D1E5
:102B000051493DE04E4A903A2168914201D140211D
:102B100036E04C4A18322168914201D140212FE021
:102B2000474A303A2168914201D1402128E0454A84
:102B300078322168914201D1402121E0404A783A1F
:102B40002168914202D14FF4803119E03D4A303280
:102B50002168914202D14FF4803111E0384A183A8D
:102B60002168914202D14FF4803109E0354A903218
:102B70002168914202D14FF4803101E04FF480018D
:102B8000084026E12E492068884263D92D48103834
:102B900000682B4AA83A2168914201D12A4957E09E
:102BA000284A2168914201D1274951E0244A483AF4
:102BB0002168914201D124494AE0224A60322168C9
:102BC000914201D1204943E01D4A903A2168914247
:102BD00001D140213CE01B4A18322168914201D1C9
:102BE000402135E0164A303A2168914201D1402116
:102BF0002EE0144A78322168914201D1402127E029
:102C00000F4A783A2168914202D14FF480311FE097
:102C10000C4A30322168914202D14FF4803117E0E2
:102C2000074A183A2168914202D14FF480310FE0EF
:102C3000044A90322168914208D14FF4803107E074
:102C4000B860024010640240010080004FF480012F
:102C50000840BEE0F949206888425DD9F7485838F5
:102C60004068F64A483A2168914201D1F44951E05E
:102C7000F44A2168914201D1F1494BE0EF4A183200
:102C80002168914201D1EE4944E0EE4A6032216868
:102C9000914201D1EA493DE0E84A303A2168914247
:102CA00001D1402136E0E74A18322168914201D132
:102CB00040212FE0E14A30322168914201D1402188
:102CC00028E0E04A78322168914201D1402121E098
:102CD000DA4A183A2168914202D14FF4803119E062
:102CE000D84A30322168914202D14FF4803111E04C
:102CF000D24A48322168914202D14FF4803109E032
:102D0000D04A90322168914202D14FF4803101E0E3
:102D10004FF4800108405CE0C84858380068C74A52
:102D2000483A2168914201D1C54951E0C54A21681C
:102D3000914201D1C2494BE0C04A18322168914208
:102D400001D1BF4944E0BF4A60322168914201D1BC
:102D5000BB493DE0B94A303A2168914201D1402156
:102D600036E0B84A18322168914201D140212FE063
:102D7000B24A30322168914201D1402128E0B14A63
:102D800078322168914201D1402121E0AB4A183AC2
:102D90002168914202D14FF4803119E0A94A3032C2
:102DA0002168914202D14FF4803111E0A34A4832A8
:102DB0002168914202D14FF4803109E0A14A90325A
:102DC0002168914202D14FF4803101E04FF480013B
:102DD0000840002879D02068406900F08000002871
:102DE00073D02068406920F08000216848619549CF
:102DF0004831206888425CD9904948392068884227
:102E000001D18F4851E08F492068884201D18C4818
:102E10004BE08A4918312068884201D1884844E053
:102E2000884960312068884201D185483DE0834966
:102E300030392068884201D1402036E0814918317C
:102E40002068884201D140202FE07C493031206841
:102E5000884201D1402028E07A49783120688842B0
:102E600001D1402021E0754918392068884202D1FB
:102E70004FF4803019E0734930312068884202D124
:102E80004FF4803011E06D4948312068884202D10A
:102E90004FF4803009E06B4990312068884202D1BC
:102EA0004FF4803001E04FF480006649091F08604C
:102EB00025E162496031206888425DD95F4948391F
:102EC0002068884202D15E4852E029E15D492068CD
:102ED000884201D15A484BE058491831206888424D
:102EE00001D1574844E0574960312068884201D1F8
:102EF00053483DE0514930392068884201D1402093
:102F000036E0504918312068884201D140202FE036
:102F10004A4930312068884201D1402028E049499F
:102F200078312068884201D1402021E04349183996
:102F30002068884202D14FF4803019E04149303195
:102F40002068884202D14FF4803011E03B4948317B
:102F50002068884202D14FF4803009E0394990312D
:102F60002068884202D14FF4803001E04FF48000A5
:102F7000344908390860C2E030492068884263D982
:102F80002E4948392068884201D12D4851E02D4909
:102F90002068884201D12A484BE02849183120682E
:102FA000884201D1264844E02649603120688842A1
:102FB00001D123483DE0214930392068884201D1C0
:102FC000402036E01F4918312068884201D1402056
:102FD0002FE01A4930312068884201D1402028E092
:102FE000184978312068884201D1402021E01349F6
:102FF00018392068884202D14FF4803019E0114915
:1030000030312068884202D14FF4803011E00B4902
:1030100048312068884202D14FF4803009E00949E4
:1030200090312068884202D14FF4803001E04FF4A3
:10303000800002495839C86061E005E058600240EC
:103040000100800010640240F9492068884201D1E3
:10305000F84851E0F8492068884201D1F5484BE032
:10306000F34960312068884201D1F24844E0F249D6
:1030700060312068884201D1EE483DE0EC491831CA
:103080002068884201D1402036E0EB4918312068A1
:10309000884201D140202FE0E549783120688842FC
:1030A00001D1402028E0E44978312068884201D1EC
:1030B000402021E0DE4930312068884202D14FF4BF
:1030C000803019E0DC4930312068884202D14FF469
:1030D000803011E0D64990312068884202D14FF407
:1030E000803009E0D44990312068884202D14FF401
:1030F000803001E04FF48000CD4910398860E06CE9
:1031000040F00200E064042084F8350000BF002095
:1031100084F8340000BFA06C10B12046A16C884731
:10312000C54948312068884260D9C3480C380068D6
:10313000BF4A2168914202D1BE49C91C54E0BE4A2F
:103140002168914202D1BB49C91C4DE0B84A6032A6
:103150002168914202D1B749C91C45E0B64A6032A4
:103160002168914202D1B349C91C3DE0B04A1832EE
:103170002168914201D1891536E0AF4A18322168A1
:10318000914201D189152FE0A94A783221689142F4
:1031900001D1891528E0A84A78322168914201D1ED
:1031A000891521E0A24A30322168914202D14FF4C0
:1031B000802119E0A04A30322168914202D14FF4B7
:1031C000802111E09A4A90322168914202D14FF455
:1031D000802109E0984A90322168914202D14FF44F
:1031E000802101E04FF08071084031E19049A83121
:1031F0002068884260D99048103800688C4A21685D
:10320000914202D18B49C91C54E08B4A21689142FA
:1032100002D18849C91C4DE0854A6032216891423B
:1032200002D18449C91C45E0834A60322168914239
:1032300002D18049C91C3DE07D4A18322168914283
:1032400001D1891536E07C4A18322168914201D1BA
:1032500089152FE0764A78322168914201D189158B
:1032600028E0754A78322168914201D1891521E020
:103270006F4A30322168914202D14FF4802119E027
:103280006D4A30322168914202D14FF4802111E021
:10329000674A90322168914202D14FF4802109E0BF
:1032A000654A90322168914202D14FF4802101E0B9
:1032B0004FF080710840CBE05D494831206888427A
:1032C00060D95B4810384068594A2168914202D160
:1032D0005849C91C54E0584A2168914202D15549C5
:1032E000C91C4DE0524A60322168914202D15149D5
:1032F000C91C45E0504A60322168914202D14D49D3
:10330000C91C3DE04A4A18322168914201D1891511
:1033100036E0494A18322168914201D189152FE0DF
:10332000434A78322168914201D1891528E0424A06
:1033300078322168914201D1891521E03C4A30322E
:103340002168914202D14FF4802119E03A4A30328B
:103350002168914202D14FF4802111E0344A903229
:103360002168914202D14FF4802109E0324A903223
:103370002168914202D14FF4802101E04FF0807129
:10338000084065E02A4810380068294A21689142BF
:1033900002D12849C91C5AE0274A2168914202D12A
:1033A0002449C91C53E0224A60322168914202D16B
:1033B0002049C91C4BE0204A60322168914202D169
:1033C0001C49C91C43E01A4A18322168914201D1B4
:1033D00089153CE0184A18322168914201D18915BB
:1033E00035E0134A78322168914201D189152EE0E7
:1033F000114A78322168914201D1891527E00C4A9F
:1034000030322168914202D14FF480211FE00A4AF4
:1034100030322168914202D14FF4802117E0044AF2
:1034200090322168914209D14FF480210FE00000D1
:10343000106002400100800010640240FA4A2168D6
:10344000914202D14FF4802101E04FF08071084099
:1034500088B32068006800F0020060B3206800684C
:1034600020F0020021680860EF494839206888424E
:103470005CD9EE492068884201D1ED4852E0EA4922
:1034800090392068884201D1E9484BE0E749603132
:103490002068884201D1E64844E0E3493039206899
:1034A000884201D1E2483DE0E04918312068884275
:1034B00002D1801536E067E1DB497839206888421F
:1034C00001D180152EE0D94978312068884201D198
:1034D000801527E0D44918392068884201D1801529
:1034E00020E0D24930312068884202D14FF4802058
:1034F00018E0CD4960392068884202D14FF480201D
:1035000010E0CA4990312068884202D14FF48020EF
:1035100008E0C5492068884202D14FF4802001E0CC
:103520004FF08070C049943908601CE1BF49A83150
:10353000206888425BD9BD492068884201D1BC48D7
:1035400051E0B94990392068884201D1B8484AE031
:10355000B64960312068884201D1B54843E0B2499C
:1035600030392068884201D1B1483CE0AF49183178
:103570002068884201D1801535E0AB497839206850
:10358000884201D180152EE0A84978312068884210
:1035900001D1801527E0A44918392068884201D15B
:1035A000801520E0A14930312068884202D14FF4D3
:1035B000802018E09C4960392068884202D14FF48D
:1035C000802010E0994990312068884202D14FF460
:1035D000802008E094492068884202D14FF480207E
:1035E00001E04FF08070904998390860BBE08F4946
:1035F0004831206888425BD98C492068884201D1D3
:103600008B4851E0884990392068884201D1884828
:103610004AE0864960312068884201D1844843E00D
:10362000814930392068884201D181483CE07F4996
:1036300018312068884201D1801535E07A497839FF
:103640002068884201D180152EE0784978312068C1
:10365000884201D1801527E07349183920688842D3
:1036600001D1801520E0714930312068884202D1B3
:103670004FF4802018E06C4960392068884202D1FC
:103680004FF4802010E0694990312068884202D1CF
:103690004FF4802008E064492068884202D14FF44A
:1036A000802001E04FF0807060491039C8605AE016
:1036B0005E492068884201D15D4851E05A499039FD
:1036C0002068884201D15A484AE058496031206850
:1036D000884201D1564843E0534930392068884236
:1036E00001D153483CE0514918312068884201D14A
:1036F000801535E04C4978392068884201D1801521
:103700002EE04A4978312068884201D1801527E0AF
:10371000454918392068884201D1801520E0434985
:1037200030312068884202D14FF4802018E03E49B1
:1037300060392068884202D14FF4802010E03B4974
:1037400090312068884202D14FF4802008E0364949
:103750002068884202D14FF4802001E04FF0807051
:10376000324910398860E06C40F00400E0640420C5
:1037700084F8350000BF002084F8340000BFA06C3E
:1037800010B12046A16C88472749483920688842F3
:1037900062D925489C380068244A2168914201D1A9
:1037A000102157E0204A903A2168914201D110211E
:1037B00050E01E4A60322168914201D1102149E057
:1037C000194A303A2168914201D1102142E0174A4A
:1037D00018322168914201D109153BE0124A783A2A
:1037E0002168914201D1091534E0104A78322168EC
:1037F000914201D109152DE00B4A183A21689142F6
:1038000001D1091526E0094A30322168914202D1DE
:103810004FF480111EE0044A603A2168914209D1B8
:103820004FF4801116E00000A064024010600240D6
:1038300004008000F74A2168914202D14FF48011C0
:1038400008E0F54A2168914202D14FF4801101E06D
:103850004FF0806108401FE1EE491831206888422E
:103860005CD9ED48A0380068EA4A903A2168914254
:1038700001D1102150E0E84A903A2168914201D1EB
:10388000102149E0E34A303A2168914201D11021E8
:1038900042E0E14A303A2168914201D110213BE0F7
:1038A000DC4A783A2168914201D1091534E0DA4ABC
:1038B000783A2168914201D109152DE0D54A183A8C
:1038C0002168914201D1091526E0D34A183A2168AE
:1038D000914201D109151FE0CE4A603A2168914218
:1038E00002D14FF4801117E0CB4A603A216891422F
:1038F00002D14FF480110FE0C64A2168914202D1F3
:103900004FF4801108E0C44A2168914202D14FF47B
:10391000801101E04FF080610840BDE0BD494839A9
:10392000206888425CD9BB48A0384068B94A903AC0
:103930002168914201D1102150E0B74A903A2168A4
:10394000914201D1102149E0B24A303A21689142B6
:1039500001D1102142E0B04A303A2168914201D1B0
:1039600010213BE0AB4A783A2168914201D1091518
:1039700034E0A94A783A2168914201D109152DE035
:10398000A44A183A2168914201D1091526E0A24AB9
:10399000183A2168914201D109151FE09D4A603A09
:1039A0002168914202D14FF4801117E09A4A603A9F
:1039B0002168914202D14FF480110FE0954A2168AD
:1039C000914202D14FF4801108E0934A216891425C
:1039D00002D14FF4801101E04FF0806108405BE0BC
:1039E0008C48A03800688B4A903A2168914201D1F6
:1039F000102150E0884A903A2168914201D110216B
:103A000049E0844A303A2168914201D1102142E0D4
:103A1000814A303A2168914201D110213BE07D4A30
:103A2000783A2168914201D1091534E07A4A783A0E
:103A30002168914201D109152DE0764A183A216892
:103A4000914201D1091526E0734A183A2168914242
:103A500001D109151FE06F4A603A2168914202D1F5
:103A60004FF4801117E06C4A603A2168914202D10C
:103A70004FF480110FE0674A2168914202D14FF460
:103A8000801108E0644A2168914202D14FF480110C
:103A900001E04FF080610840002878D0206800687D
:103AA00000F00800002872D02068006800F4802030
:103AB000A8B359494839206888425CD9554990399A
:103AC0002068884201D1102051E053499039206884
:103AD000884201D110204AE04E493039206888429E
:103AE00001D1102043E04C4930392068884201D18F
:103AF00010203CE0474978392068884201D1001500
:103B000035E0454978392068884201D100152EE01A
:103B1000404918392068884202D1001527E05FE14A
:103B20003D4918392068884201D100151FE0394904
:103B300060392068884202D14FF4801017E036497E
:103B400060392068884202D14FF480100FE031497B
:103B50002068884202D14FF4801008E02E49206886
:103B6000884202D14FF4801001E04FF080602A4972
:103B70009439086022E1274918312068884261D9C8
:103B8000244990392068884202D1102056E0BEE2D4
:103B9000214990392068884201D110204EE01D490A
:103BA00030392068884201D1102047E01A49303965
:103BB0002068884201D1102040E0164978392068F9
:103BC000884201D1001539E01349783920688842CC
:103BD00001D1001532E00F4918392068884201D11F
:103BE00000152BE00C4918392068884201D10015D6
:103BF00024E0084960392068884202D14FF48010DF
:103C00001CE0054960392068884207D14FF48010D4
:103C100014E00000A0600240A0640240FA4920685D
:103C2000884202D14FF4801008E0F84920688842A9
:103C300002D14FF4801001E04FF08060F3499839D1
:103C40000860BBE0F0494839206888425BD9EE49FA
:103C500090392068884201D1102050E0EB4990391A
:103C60002068884201D1102049E0E74930392068B6
:103C7000884201D1102042E0E4493039206888426E
:103C800001D110203BE0E04978392068884201D119
:103C9000001534E0DD4978392068884201D10015EB
:103CA0002DE0D94918392068884201D1001526E055
:103CB000D64918392068884201D100151FE0D24941
:103CC00060392068884202D14FF4801017E0CF4954
:103CD00060392068884202D14FF480100FE0CA4951
:103CE0002068884202D14FF4801008E0C74920685C
:103CF000884202D14FF4801001E04FF08060C24949
:103D0000A039C8605AE0C04990392068884201D182
:103D1000102050E0BD4990392068884201D1102020
:103D200049E0B94930392068884201D1102042E089
:103D3000B64930392068884201D110203BE0B249B1
:103D400078392068884201D1001534E0AF497839CC
:103D50002068884201D100152DE0AB491839206850
:103D6000884201D1001526E0A84918392068884208
:103D700001D100151FE0A44960392068884202D1B2
:103D80004FF4801017E0A14960392068884202D1C1
:103D90004FF480100FE09C492068884202D14FF414
:103DA000801008E099492068884202D14FF48010C1
:103DB00001E04FF080609449A03988602068006875
:103DC00000F4002018B9312084F835009AE1206809
:103DD000006800F4002078B3412084F8350091E1B8
:103DE0002068006800F4807028B92068006820F01E
:103DF00008002168086085494839206888425CD9F4
:103E0000814990392068884201D1102051E07F49D2
:103E100090392068884201D110204AE07A4930392F
:103E20002068884201D1102043E078493039206869
:103E3000884202D110203CE064E17349783920685F
:103E4000884201D1001534E07049783920688842F1
:103E500001D100152DE06C4918392068884201D144
:103E6000001526E0694918392068884201D10015FB
:103E70001FE0654960392068884202D14FF4801004
:103E800017E0624960392068884202D14FF48010FF
:103E90000FE05D492068884202D14FF4801008E0AD
:103EA0005A492068884202D14FF4801001E04FF057
:103EB000806056499439086021E1534918312068DF
:103EC00088425BD9504990392068884201D110203E
:103ED00050E04E4990392068884201D1102049E0D5
:103EE000494930392068884201D1102042E04749D1
:103EF00030392068884201D110203BE042497839AE
:103F00002068884201D1001534E0404978392068A2
:103F1000884201D100152DE03B49183920688842BC
:103F200001D1001526E0394918392068884201D1AD
:103F300000151FE0344960392068884202D14FF4EF
:103F4000801017E0314960392068884202D14FF46F
:103F500080100FE02C492068884202D14FF4801075
:103F600008E02A492068884202D14FF4801001E01D
:103F70004FF08060254998390860C0E022494839EF
:103F80002068884260D9204990392068884201D150
:103F9000102055E01D4990392068884201D1102039
:103FA0004EE0194930392068884201D1102047E09D
:103FB000164930392068884201D1102040E012496A
:103FC00078392068884201D1001539E00F497839E5
:103FD0002068884201D1001532E00B491839206869
:103FE000884201D100152BE0084918392068884221
:103FF00001D1001524E0044960392068884207D1C6
:104000004FF480101CE00000A0600240A064024059
:10401000F7492068884202D14FF4801010E0F5493A
:104020002068884202D14FF4801009E0F0496031E5
:104030002068884202D14FF4801001E04FF0806088
:10404000EC49A039C8605AE0EA49903920688842B2
:1040500001D1102050E0E64930392068884201D172
:10406000102049E0E34930392068884201D110200E
:1040700042E0DF4930312068884201D110203BE026
:10408000DC4978392068884201D1001534E0D849EC
:1040900018392068884201D100152DE0D54918391A
:1040A0002068884201D1001526E0D14948312068B6
:1040B000884201D100151FE0CE496039206888424E
:1040C00002D14FF4801017E0C9492068884202D11C
:1040D0004FF4801010E0C7492068884202D14FF4A5
:1040E000801009E0C24960312068884202D14FF453
:1040F000801001E04FF08060BE49A0398860312017
:1041000084F83500206C10B12046216C8847B849EE
:104110001831206888425CD9B5483C380068B54AF7
:10412000903A2168914201D1202150E0B04A303AC2
:104130002168914201D1202149E0AE4A303A2168FC
:10414000914201D1202142E0A94A303221689142B6
:1041500001D120213BE0A74A783A2168914201D160
:10416000C91434E0A24A183A2168914201D1C91415
:104170002DE0A04A183A2168914201D1C91426E0E5
:104180009B4A48322168914201D1C9141FE0994AE3
:10419000603A2168914202D14FF4001117E0944A2D
:1041A0002168914202D14FF4001110E0914A216838
:1041B000914202D14FF4001109E08D4A603221682A
:1041C000914202D14FF4001101E04FF0006108402C
:1041D00023E188491831206888425CD984484038F6
:1041E0000068844A903A2168914201D1202150E030
:1041F0007F4A303A2168914201D1202149E07D4A2D
:10420000303A2168914201D1202142E0784A30328F
:104210002168914201D120213BE0764A783A216819
:10422000914201D1C91434E0714A183A216891428F
:1042300001D1C9142DE06F4A183A2168914201D189
:10424000C91426E06A4A48322168914201D1C91452
:104250001FE0684A603A2168914202D14FF4001190
:1042600017E0634A2168914202D14FF4001110E037
:10427000604A2168914202D14FF4001109E05C4A82
:1042800060322168914202D14FF4001101E04FF0F9
:1042900000610840C1E057494839206888425CD92C
:1042A0005448A0384068534A903A2168914201D15D
:1042B000202150E04E4A303A2168914201D120211C
:1042C00049E04C4A303A2168914201D1202142E034
:1042D000474A30322168914201D120213BE0454AD2
:1042E000783A2168914201D1C91434E0404A183A21
:1042F0002168914201D1C9142DE03E4A183A216843
:10430000914201D1C91426E0394A483221689142CC
:1043100001D1C9141FE0374A603A2168914202D1A5
:104320004FF4001117E0324A2168914202D14FF454
:10433000001110E02F4A2168914202D14FF4001180
:1043400009E02B4A60322168914202D14FF40011FA
:1043500001E04FF0006108405FE02648A0380068A7
:10436000244A903A2168914201D1202154E0204A08
:10437000303A2168914201D120214DE01D4A303A66
:104380002168914201D1202146E0194A303221684A
:10439000914201D120213FE0164A783A21689142AA
:1043A00001D1C91438E0124A183A2168914201D16A
:1043B000C91431E00F4A183A2168914201D1C91459
:1043C0002AE00B4A48322168914201D1C91423E006
:1043D000084A603A2168914202D14FF400111BE073
:1043E000034A2168914207D14FF4001114E0000004
:1043F00040640240A0600240F94A2168914202D123
:104400004FF4001108E0F74A2168914202D14FF4BD
:10441000001101E04FF00061084088B32068006897
:1044200000F0100060B32068006800F4802040B302
:10443000EC494839206888425DD9E94990392068BB
:10444000884201D1202052E0E64990392068884214
:1044500001D120204BE0E24930392068884201D167
:10446000202044E0DF4930392068884201D12020F3
:104470003DE0DB4978392068884203D1C01436E03A
:1044800091E16BE1D74978392068884201D1C014A5
:104490002DE0D34918392068884201D1C01426E0A4
:1044A000D04918392068884201D1C0141FE0CC4996
:1044B00060392068884202D14FF4001017E0C949E2
:1044C00060392068884202D14FF400100FE0C449DF
:1044D0002068884202D14FF4001008E0C1492068EA
:1044E000884202D14FF4001001E04FF00060BD4956
:1044F000943908601CE1BA491831206888425BD9B8
:10450000B74990392068884201D1202050E0B54950
:1045100090392068884201D1202049E0B0493039E3
:104520002068884201D1202042E0AE49303920681D
:10453000884201D120203BE0A9497839206888428F
:1045400001D1C01434E0A74978392068884201D1EC
:10455000C0142DE0A24918392068884201D1C01446
:1045600026E0A04918392068884201D1C0141FE014
:104570009B4960392068884202D14FF4001017E04F
:10458000984960392068884202D14FF400100FE04A
:1045900093492068884202D14FF4001008E0914905
:1045A0002068884202D14FF4001001E04FF0006013
:1045B0008C4998390860BBE08949483920688842AD
:1045C0005BD9874990392068884201D1202050E08A
:1045D000844990392068884201D1202049E08049EF
:1045E00030392068884201D1202042E07D493039AD
:1045F0002068884201D120203BE079497839206841
:10460000884201D1C01434E0764978392068884264
:1046100001D1C0142DE0724918392068884201D1B7
:10462000C01426E06F4918392068884201D1C014AF
:104630001FE06B4960392068884202D14FF40010B6
:1046400017E0684960392068884202D14FF40010B1
:104650000FE063492068884202D14FF4001008E05F
:1046600060492068884202D14FF4001001E04FF009
:1046700000605B49A039C8605AE059499039206808
:10468000884201D1202050E0564990392068884264
:1046900001D1202049E0524930392068884201D1B7
:1046A000202042E04F4930392068884201D1202043
:1046B0003BE04B4978392068884201D1C01434E08E
:1046C000484978392068884201D1C0142DE0444916
:1046D00018392068884201D1C01426E041491839B0
:1046E0002068884201D1C0141FE03D49603920682C
:1046F000884202D14FF4001017E03A49603920682F
:10470000884202D14FF400100FE0354920688842FA
:1047100002D14FF4001008E032492068884202D1EB
:104720004FF4001001E04FF000602D49A03988607F
:104730002068006800F4002028B9606C98B3204617
:10474000616C8847A7E12068006800F4002050B33E
:10475000E06B40B32046E16B88479CE1206800682D
:1047600000F4807028B92068006820F010002168EB
:1047700008601C4948392068884260D91849903936
:104780002068884201D1202055E0164990392068E0
:10479000884201D120204EE01149303920688842FA
:1047A00002D1202047E076E10E4930392068884266
:1047B00001D120203FE00A4978392068884201D1A0
:1047C000C01438E0074978392068884201D1C01404
:1047D00031E0034918392068884205D1C0142AE025
:1047E000A0600240A0640240AB492068884201D129
:1047F000C01420E0A9492068884202D14FF400107B
:1048000019E0A54948392068884202D14FF40010C8
:1048100011E0A24960312068884202D14FF40010B3
:1048200009E09D4918312068884202D14FF40010F8
:1048300001E04FF0006098497C3908601CE197491D
:104840007831206888425BD99449303920688842A1
:1048500001D1202050E0904978392068884201D168
:10486000202049E08D4930312068884201D1202044
:1048700042E0894918392068884201D120203BE074
:10488000864918392068884201D1C01434E0824931
:1048900060392068884201D1C0142DE07F49483139
:1048A0002068884201D1C01426E07B4920688842F4
:1048B00001D1C01420E079492068884202D14FF428
:1048C000001019E0744948392068884202D14FF439
:1048D000001011E0714960312068884202D14FF424
:1048E000001009E06C4918312068884202D14FF469
:1048F000001001E04FF00060674980390860BBE0BC
:1049000066491831206888425BD96449303920688B
:10491000884201D1202050E05F49783920688842E0
:1049200001D1202049E05D4930312068884201D121
:10493000202042E0584918392068884201D12020BF
:104940003BE0564918392068884201D1C01434E050
:10495000514960392068884201D1C0142DE04F4987
:1049600048312068884201D1C01426E04A492068B5
:10497000884201D1C01420E048492068884202D111
:104980004FF4001019E0444948392068884202D1A8
:104990004FF4001011E0414960312068884202D193
:1049A0004FF4001009E03C4918312068884202D1D8
:1049B0004FF4001001E04FF0006038494039C86002
:1049C0005AE0364930392068884201D1202050E031
:1049D000314978392068884201D1202049E02F49A7
:1049E00030312068884201D1202042E02A4918391C
:1049F0002068884201D120203BE0284918392068EE
:104A0000884201D1C01434E02349603920688842CB
:104A100001D1C0142DE0214948312068884201D1DC
:104A2000C01426E01C492068884201D1C01420E04F
:104A30001A492068884202D14FF4001019E0164943
:104A400048392068884202D14FF4001011E0134920
:104A500060312068884202D14FF4001009E00E490D
:104A600018312068884202D14FF4001001E04FF065
:104A700000600A4940398860E06CE064112084F8E5
:104A8000350000BF002084F8340000BFE06B10B197
:104A90002046E16B884710BD8864024040600240B8
:104AA0000146002209B901207047486A00B100BFE1
:104AB000022081F835000868026817480240D1E9F1
:104AC00001031843CB6818430B6918434B6918431B
:104AD0008B691843CB6918430B6A18430243486A31
:104AE000042803D1D1E90B0318430243086802608C
:104AF0000868426922F00702486A0243486A0428AB
:104B000001D1886A0243086842610020C86401201C
:104B100081F835000020C7E73F8010F02DE9F04113
:104B200004460D4616461F4600BF94F8340001287F
:104B300002D10220BDE8F081012084F8340000BFDA
:104B4000022084F835002068006820F00100216808
:104B500008603B46324629462046FCF7B5F92068F6
:104B6000006840F01000216808602068006840F08C
:104B70000800216808602068006840F0040021688F
:104B800008602068406940F0800021684861206822
:104B9000006840F00200216808602068006840F06A
:104BA0000100216808600020C4E731B5002400F04E
:104BB000A3F9044600BF00F09FF9001B009988424A
:104BC000F9D338BDF0B50C460025002200230021A2
:104BD00081E0012606FA01F504EA0502AA4279D12C
:104BE00006684FEA410C032707FA0CF7BE4306603C
:104BF000CF0800F1200656F827604F074FEAD76C20
:104C00000F2707FA0CF7BE434FEAD10C00F120073B
:104C100047F82C6086684FEA410C032707FA0CF727
:104C2000BE438660476801268E40B7434760C6682A
:104C30004FEA410C032707FA0CF7BE43C660284E23
:104C40008F0856F827308E07370F0F26BE403340A7
:104C5000244EB04201D1002614E0234EB04201D1CF
:104C600001260FE0214EB04201D102260AE0204E7B
:104C7000B04201D1032605E01E4EB04201D1042608
:104C800000E005268F073F0FBE409E4222D18E07CF
:104C9000370F0F2606FA07F3114E8F0856F82760D4
:104CA0009E430F4F4FEA910C47F82C60124E366826
:104CB0009643114F3E603E1D366896433F1D3E6051
:104CC0003E1D366896433F1D3E603E1D3668964346
:104CD0003F1D3E60491C1029FFF47BAFF0BD000072
:104CE0000838014000000240000402400008024071
:104CF000000C024000100240003C014070470000E0
:104D000010B5044604480068204020B10248046001
:104D10002046FFF7F3FF10BD143C0140F8B50346F1
:104D20000A460025002400200021CBE0012606FAD7
:104D300001F5166806EA0504AC4271D15668022EE8
:104D400002D05668122E13D1CF0803F1200656F870
:104D500027004E07F70E0F26BE40B0434F07FF0E49
:104D60001669BE403043CF0803F1200646F82700FD
:104D700018684F000326BE40B043167906F00306BC
:104D80004F00BE40304318605668012E08D0566868
:104D9000022E05D05668112E02D05668122E13D15D
:104DA00098684F000326BE40B0434F00D668BE400F
:104DB00030439860586801268E40B0431679C6F398
:104DC00000168E4030435860D8684F000326BE401E
:104DD000B0434F009668BE403043D860566806F036
:104DE0008056B6F1805F6CD100BF384E366846F40D
:104DF0008046364F3E603E46366806F48046009652
:104E000000BF00BF324E8F0856F827008E07370FBD
:104E10000F26BE40B0432F4EB34202D1002615E00C
:104E20004FE02D4EB34201D101260FE02B4EB3428D
:104E300001D102260AE02A4EB34201D1032605E041
:104E4000284EB34201D1042600E005268F073F0F0C
:104E5000BE4030431E4E8F0846F82700224E306871
:104E6000A043566806F48036B6F5803F00D1204353
:104E70001D4E3060361D3068A043566806F400367B
:104E8000B6F5003F00D12043174E361D3060361D69
:104E90003068A043566806F48016B6F5801F00D12E
:104EA0002043114E08363060361D3068A0435668E6
:104EB00006F40016B6F5001F00D120430A4E0C364A
:104EC0003060491C1029FFF431AFF8BD443802406E
:104ED000083801400000024000040240000802407F
:104EE000000C024000100240003C01400AB1816108
:104EF00001E00B04836170470148006870470000BF
:104F00000001002010B504460CB9012010BD02209C
:104F100084F835002068006820F0010021680860EE
:104F2000204600F079FB0020A06384F8350000BF24
:104F300084F8340000BF00BFE8E72DE9F0410446E3
:104F400000250026002720684069C0F3002520685E
:104F50004068C0F300264DB1012E07D1A06B40F090
:104F60000100A0636FF48070216848612068406987
:104F7000C0F3402520684068C0F300264DB1012EE3
:104F800007D1A06B40F00200A0636FF400702168AD
:104F9000486120684069C0F3802520684068C0F3FC
:104FA0000026C5B1012E16D12068806900F00105E8
:104FB000668D94F8357035B92EB9122F03D120467D
:104FC00002F047FE07E0A06B40F00400A0636FF41E
:104FD00080602168486120684069C0F3C02520686E
:104FE0004068C0F300264DB1012E07D1A06B40F000
:104FF0000800A0636FF4006021684861A06B58B19D
:10500000012084F835002068006820F400602168E1
:105010000860204600F0BBF8BDE8F0812DE9F041C2
:105020000446002700260025A8462068806900F075
:105030000100002846D020688069C0F3800000B3DA
:1050400020684069C0F3C01720684068C0F380261C
:1050500020684069C0F3800520684068C0F340289C
:1050600037B1012E04D11DB9204602F042FD8CE07B
:10507000012DFCD1B8F1010FF9D1204602F00CFD51
:1050800083E020684069C0F3801720684068C0F35F
:10509000802620684069C0F3800520684068C0F31E
:1050A000402837B1012E04D11DB9204602F0F3FB90
:1050B0006BE0012D69D1B8F1010F66D1204602F0F5
:1050C00093FB62E020684069C0F3400720684068B5
:1050D000C0F3402620684069C0F30015206880694D
:1050E000C0F380082FB1012E03D1204602F0A4FDA9
:1050F0004BE0012D05D1012E03D1204602F0C3FD66
:1051000043E0B8F1010F20D120684069C0F3C01717
:1051100020684068C0F3802620684069C0F380059D
:1051200020684068C0F3402837B1012E04D11DB972
:10513000204602F073FD28E0012D26D1B8F1010FC1
:1051400023D1204602F05CFD1FE020684069C0F3D7
:10515000801720684068C0F3802620684069C0F34B
:10516000800520684068C0F3402837B1012E04D183
:105170001DB9204602F035FD07E0012D05D1B8F13B
:10518000010F02D1204602F01DFDBDE8F0817047FD
:10519000014691F83500704770B504460026002599
:1051A0000CB9012070BD94F8350028B9002084F8AE
:1051B0003400204600F04CFA022084F835002068C4
:1051C000006820F001002168086001F03FFB0546FF
:1051D0003748B5FBF0F6206846603649606888427B
:1051E00001D8701C07E04FF4967070434FF47A7149
:1051F000B0FBF1F0401C216808622E4960688842CB
:105200000ED860684000B5FBF0F0C0F30B00042836
:1052100001D204202DE060684000B5FBF0F028E0EA
:10522000A06828B9606800EB4000B5FBF0F008E02A
:10523000606800EBC00101EB0010B5FBF0F040F43A
:105240008040C0F30B0008B9012012E0A06828B923
:10525000606800EB4000B5FBF0F008E0606800EB30
:10526000C00101EB0010B5FBF0F040F4804040F4C9
:1052700000402168C861D4E907010843216808603B
:10528000D4E90310084321688860D4E90501084384
:105290002168C8602068006840F00100216808604B
:1052A0000020A063012084F8350000207AE7000088
:1052B00040420F00A0860100704770472DE9F84377
:1052C0000446884615461E46089F94F83500012876
:1052D00079D105B116B90120BDE8F8830423012274
:1052E0008549204602F0F1FC08B10220F4E700BF36
:1052F00094F83400012801D10220EDE7012084F860
:10530000340000BF2068006820F400602168086055
:10531000222084F835000020A0633A46414620460A
:1053200002F0F8FA80B1A06B042806D100BF00207B
:1053300084F8340000BF0120CEE700BF002084F8CD
:10534000340000BF0320C7E7012E15D12068006894
:1053500020F480602168086000BF206840690090E8
:1053600020688069009000BF00BF2068006840F49A
:1053700000702168086025E0022E14D120680068C2
:1053800020F48060216808602068006840F40060B4
:105390002168086000BF206840690090206880692B
:1053A000009000BF0EE02068006840F48060216833
:1053B000086000BF20684069009020688069009004
:1053C00000BF00BF80E095E0032E63DC012E0FD10B
:1053D0003B4600224949204602F077FC08B10320F1
:1053E0007AE72068006905F8010B701E86B26BE051
:1053F000022E1CD13B46002240493C39204602F097
:1054000064FC08B1032067E72068006840F400707E
:10541000216808602068006905F8010B701E86B2DB
:105420002068006905F8010B701E86B24CE03B460F
:10543000002232493C39204602F047FC08B10320E3
:105440004AE72068006820F48060216808602068CE
:10545000006905F8010B701E86B23B460022274901
:105460003C39204602F031FC08B1032034E72068C3
:10547000006840F40070216808602068006905F841
:10548000010B701E86B22068006905F8010B701EC2
:1054900086B219E03B4600221849204602F015FC6E
:1054A00008B1032018E72068006905F8010B701E99
:1054B00086B220684069C0F3800028B12068006986
:1054C00005F8010B701E86B2002E3FF77DAF01205C
:1054D00084F8350000BF002084F8340000BF0A23A0
:1054E00001220549204602F0F0FB08B10020F3E656
:1054F0000020F1E60220EFE602001000400001006B
:105500002DE9F8430446884615461E46089F94F840
:105510003500012878D105B116B90120BDE8F8831E
:10552000042301223949204602F0CFFB08B10220B2
:10553000F4E700BF94F83400012801D10220EDE720
:10554000012084F8340000BF2068006820F4006067
:1055500021680860122084F835000020A0633A46D4
:105560004146204602F052FA80B1A06B042806D1D1
:1055700000BF002084F8340000BF0120CEE700BF48
:10558000002084F8340000BF0320C7E700BF206874
:105590004069009020688069009000BF00BF0EE065
:1055A0003B4600221A49204602F08FFB08B1032037
:1055B000B4E715F8010B21680861701E86B2002E51
:1055C000EEDC3B4600221249204602F07EFB08B189
:1055D0000320A3E72068006840F400702168086099
:1055E000012084F8350000BF002084F8340000BF9B
:1055F0000A2301220549204602F067FB10B1002072
:105600008CE701E0002089E7022087E70200100014
:10561000800001007047704710B504460A480068D2
:1056200040F40010084908600846006820F40010A3
:10563000086040210548FFF7C5FA4FF400710348A0
:10564000FFF7C0FA10BD00002038024000040240FD
:1056500010B586B0044600BF2148006840F0020043
:105660001F4908600846006800F00200009000BF73
:1056700000BF00BF0846006840F00200086008460E
:10568000006800F00200009000BF00BF00BF144897
:105690001030006840F400101149103108600846CD
:1056A000006800F40010009000BF00BF402001908F
:1056B0001220029001200390022004900420059003
:1056C00001A90848FFF72AFB4FF40070019004205D
:1056D000059001A90348FFF721FB06B010BD0000AB
:1056E00030380240000402407047704710B504464D
:1056F0000CB9012010BD607B20B90020207320462A
:1057000000F01AF80220607345F2555021680860D5
:105710002068406820F007006168084321684860FD
:10572000206880686FF30B00A168084321688860D7
:10573000012060730020DDE7704770B50446002546
:1057400000BF207B012801D1022070BD0120207301
:1057500000BF02206073FFF7CFFB05460DE0FFF7A7
:10576000CBFB401BB0F57A7F07D90320607300BFE5
:105770000020207300BF0320E7E72068C068C0F363
:1057800040000028EBD14AF6AA20216808600120D9
:10579000607300BF0020207300BF00BFD5E7014643
:1057A00000BF087B012801D1022070470120087347
:1057B00000BF022048734CF6CC400A6810604AF6DD
:1057C000AA200A6810600120487300BF00200873F7
:1057D00000BF00BFE9E7000002480068401C014923
:1057E000086070470001002010B50A48006840F4C6
:1057F0000070084908600846006840F4806008604E
:10580000032000F0B3F8002000F006F800F016F8CE
:10581000002010BD003C024070B5044600F0FAFFC5
:105820004FF47A71B0FBF1F5284601F03BFC002201
:105830002146501E00F05BF8002070BD704770B527
:1058400004460D4616460CB9012070BD94F8390087
:1058500028B9002084F83800204601F055FE0220C7
:1058600084F839002068C06820F400502168C860BE
:10587000204604F001FE2068006920F49040216871
:1058800008612068406920F02A002168486120688A
:10589000006920F00F002168086120680069284332
:1058A000216808612068C06820F400602168C86031
:1058B0002068C06830432168C8602068C06840F430
:1058C00000502168C8600020E063012084F839009E
:1058D0000020BAE700BF00F01F02012191404209F9
:1058E000920002F1E022C2F8001100BF70472DE9DA
:1058F000F05F80460D461646002703F095F90746EF
:1059000039462A46334601F00700C0F1070ABAF1CA
:10591000040F02D94FF0040A01E0C0F1070AD14692
:1059200000F1040ABAF1070F02D24FF0000A01E0B9
:10593000A0F1030AD4464FF0010A0AFA09FAAAF1C3
:10594000010A0AEA020A0AFA0CFA4FF0010B0BFAF2
:105950000CFBABF1010B0BEA030B4AEA0B042146EB
:10596000404603F069F9BDE8F09F000000BF00F079
:105970000702064B19684FF6FF031940044B0B430F
:1059800043EA0221014B196000BF70470CED00E0B3
:105990000000FA0502461068416200207047F0B529
:1059A00003461446002500221868426A21B942EADB
:1059B00004401E68B06219E01868806A02EB104269
:1059C000002508E0186800F5827050F8250002EB09
:1059D0001042681CC5B2481EA842F3DC42EA0447E4
:1059E000186800F582704E1E40F826700020F0BD49
:1059F00010B50446D4F8B00305F000FB10BD70B537
:105A000004460D46C5EBC50304F1340101EB8301E7
:105A1000CA682946D4F8B00305F040FA70BD70B5E5
:105A200004460D46C5EBC50304F5EC7101EB83019B
:105A3000CA682946D4F8B00305F09DFA70BD10B5C8
:105A40000446D4F8B00305F0DCFA10BD70B5044686
:105A50000D4605F08000802808D105F07F00C0EBDE
:105A6000C00104F1340000EB810607E005F07F007F
:105A7000C0EBC00104F5EC7000EB810605F07F007F
:105A8000307005F08000C009707000BF94F87C038E
:105A9000012801D1022070BD012084F87C0300BFE1
:105AA0003146206805F066FF00BF002084F87C03C3
:105AB00000BF00BFEFE770B504460D4605F080005B
:105AC000802808D105F07F00C0EBC00104F134004C
:105AD00000EB810605E0C5EBC50104F5EC7000EBB9
